:020000040800F2
:1000000000A50120AD020008E9BA00089D9C000887
:10001000C9B900088D270008D90F010800000000A9
:1000200000000000000000000000000001E60008E1
:100030007D2A0008000000003D20000825FD000882
:10004000D1020008D1020008D1020008D102000844
:10005000D1020008D1020008D1020008D102000834
:10006000D1020008D1020008D1020008D102000824
:10007000D1020008D1020008D1020008D102000814
:10008000D1020008D1020008D1020008D102000804
:10009000D1020008D1020008D1020008992A000804
:1000A000D1020008D1020008D1020008CDFE0008EC
:1000B000DDFE0008D1020008D1020008D1020008CC
:1000C000D1020008D1020008D1020008D1020008C4
:1000D000D1020008590E0108710E0108C50E010871
:1000E000D1020008D1020008D1020008D1020008A4
:1000F000D1020008D1020008D1020008D102000894
:10010000D1020008D1020008D1020008D102000883
:10011000E1090108D1020008D1020008D10200085B
:10012000D1020008D1020008D1020008D102000863
:10013000D1020008D1020008D1020008D102000853
:10014000D1020008D1020008D1020008D102000843
:10015000D1020008D1020008D1020008D102000833
:10016000D1020008D1020008D1020008D102000823
:10017000D1020008D1020008D102000800000000EE
:10018000D1020008D102000800F002F800F07FF868
:100190000AA090E8000C82448344AAF10107DA45E2
:1001A00001D100F074F8AFF2090EBAE80F0013F0B5
:1001B000010F18BFFB1A43F001031847E05F02006C
:1001C000006002000A444FF0000C10F8013B13F0ED
:1001D000070408BF10F8014B1D1108BF10F8015BA0
:1001E000641E05D010F8016B641E01F8016BF9D193
:1001F00013F0080F1EBF10F8014BAD1C0C1B09D1EA
:100200006D1E58BF01F801CBFAD505E014F8016B5B
:1002100001F8016B6D1EF9D59142D6D370470000ED
:100220000023002400250026103A28BF78C1FBD8FF
:10023000520728BF30C148BF0B60704766291BF0CA
:100240000480642900F0F281752900F0EF8178299B
:1002500000F02882732901F07C80002070471FB5D0
:100260001AF0E9FF9DE8030000F092FD01F01AF991
:100270000400002000211AF079FC401C606000207E
:1002800000211AF089FCE0601FBD10B510BD01F01F
:100290003BFA1146FFF7E3FF19F066F901F059FA4E
:1002A00003B4FFF7F2FF03BC14F061FC0C480168D3
:1002B00041F4700101600B4880470B480047FEE79E
:1002C000FEE7FEE7FEE7FEE7FEE7FEE7FEE7FEE706
:1002D000FEE7000005480649044A064B7047000047
:1002E00088ED00E03DFD000889010008009501202F
:1002F00000A501200095012072B6704762B67047D4
:1003000072B602B4EFF3118180F31188BFF34F8FFF
:10031000BFF36F8F084602BC62B6704772B680F3B7
:100320001188BFF34F8FBFF36F8F62B6704730BF36
:10033000704720BF7047B0FA80F0704790FAA0F085
:10034000B0FA80F0704790FAA0F07047704770B52F
:10035000064600F0FDFC056806F10B0020F00704DE
:10036000B4429CBF002070BD2B466A68BAB11068C9
:10037000A04210D304F1080188423CBF5068586085
:1003800007D35168101941601168091B016058605A
:100390001460101D70BD13465268002AE7D1214633
:1003A000284600F0E1FC0028DED170BD70B504469F
:1003B000051F00F0CDFC0068002C14BF446870BD20
:1003C000002C18BFAC423CBF20466468F8D30168DB
:1003D0000A18AA4218BF456003D12A68054611448D
:1003E000016028684119A1421CBF6C6070BD616842
:1003F000696021680844286070BD53EA020C00F06F
:1004000069802DE9F04B4FF00006002B1FBFB3FAB7
:1004100083F503FA05F424FA05F65E4012BF16438D
:10042000B2FA82F502FA05F4C5F120051EBF22FAE0
:1004300005FC44EA0C04203556EA044C4FEA144407
:1004400018BF641C4FF000084FF00009904271EB98
:10045000030C39D3002919BFB1FA81F701FA07F665
:10046000B0FA80F700FA07F6C7F120071EBF20FA9E
:1004700007FC46EA0C062037B6FBF4FCA7EB0507A1
:10048000103F07F01F0BCBF120060CFA0BFB2CFAE8
:1004900006F644BFB3460026202FA4BF5E464FF0A9
:1004A000000B5BEA060C08BF4FF0010B19EB0B09C0
:1004B000ABFB027C48EB0608C01B06FB02CC0BFB27
:1004C00003CC71EB0C01C1E70B460246414648469E
:1004D000BDE8F08B13B54FF000004FF00001AFF313
:1004E0000080BDE81C40704710B54C1084EA5304EE
:1004F00004D54042C1F1000138BF491E1B4204D55A
:100500005242C3F1000338BF5B1EFFF776FF14F0C1
:10051000804F04D04042C1F1000138BF491E14F0A1
:10052000004F04D05242C3F1000338BF5B1E10BD20
:100530000FB41CB5074B06AA7B446946009005988A
:1005400000F0D5FE0020694600F0E4FE1CBC5DF81A
:1005500014FB0000D90D00000FB41CB50C0007AA55
:10056000009001D02044401E074B7B446946019017
:10057000069800F0BCFE002C03D06946002000F075
:10058000C9FE1CBC5DF814FBB10D000070B504463B
:1005900085690068C10601D5302600E02026C00725
:1005A00007D070BDD4E9012130469047206A401C35
:1005B00020626D1EF6D570BD70B504468569007861
:1005C000C00707D170BDD4E9012120209047206ADF
:1005D000401C20626D1EF6D570BD70B50C460546F8
:1005E000012A05D02878800600D5EA69002302E0B8
:1005F000012305E05B1C934202D2E05C0028F9D1A4
:10060000A869E618C01AA861286A18442862284612
:10061000FFF7BCFF04E0D5E9012114F8010B904776
:10062000B442F8D32846FFF7C7FF70BD2DE9F0416B
:100630000646002410687529314616A510D0AFF380
:100640000080002802DA404213A507E031688A07DB
:1006500001D512A502E0490704D511A5012401E046
:10066000AFF3008000210A2206F1240709E0B0FB65
:10067000F2FCB0FBF2F302FB1C0030307854184659
:10068000491C0028F3D123462A463046BDE8F041F4
:1006900000F0BFBB000000002D0000002B00000098
:1006A0002000000070B504460D4621461068AFF3E7
:1006B00000802188090502D50F4A7A4402E00E4ADB
:1006C0007A440E32002104F1240305E000F00F0605
:1006D0000009965D5E54491C0028F7D1207800235C
:1006E000000704D5702D02D009B102231132204633
:1006F000BDE8704000F08DBB065902002DE9F05FA7
:10070000894604464FF0000ADFF874B1FB44C0F894
:1007100020A02046E1688847002874D0252806D00C
:10072000D4E901219047206A401C2062F1E70026AD
:100730005F462046E16888472028054607DB312DC3
:1007400005D2781910F8200C08B10643F1E7B0077C
:1007500001D526F00406C4F81CA00027C4F818A090
:100760002A2D09D0284614F0FBF938B304EB87088A
:10077000303DC8F8185019E059F8041B204604EB26
:1007800087029161E1688847012F054618D1E06929
:10079000002820DA26F020061DE0D8F8180000EB2B
:1007A000800005EB40003038C8F818002046E168AA
:1007B0008847054614F0D4F90028EED1012F0AD05D
:1007C0002E2D08D12046E16888477F1C0546022F60
:1007D00046F02006C4DBA069002803DA404246F058
:1007E0000106A061F00701D026F010066C2D0BD099
:1007F000682D09D04C2D39D06A2D35D0742D35D0C7
:100800007A2D33D016E038E0E1682F46204688473D
:10081000B842054609D16C2F26D04FF48060E168BC
:10082000064320468847054604E06C2F1AD04FF453
:10083000807006430DB3A5F14100192802D8203578
:1008400046F400664A462946204626604E46FFF793
:10085000F5FC80B101280BD0F61D26F0070000F151
:10086000080956E74020E4E78020D8E70020D6E7D3
:1008700006F104094DE7284652E7206ABDE8F09FDB
:10088000DC5802002DE9F05F93460F46804604468F
:10089000002600F061FAD0F80090824614F8015B5F
:1008A0002DB100F04DFA0068405DC007F6D12B2D48
:1008B00002D02D2D1AD0641E0021CAF800105A460D
:1008C0003946204600F049FD014627B13868A0426C
:1008D00001D1C7F80080DAF80000022809D0CAF870
:1008E0000090700505D54842BDE8F09F46F480664B
:1008F000E2E70846F8E700000EB5054614460E4646
:1009000013A000F084FD284600F081FD16A000F041
:100910007EFD304600F07BFD15A000F078FD002143
:100920008DF80B100A210DF10A008DF80A1008E06D
:1009300094FBF1F201FB124294FBF1F4303200F827
:10094000012D002CF4DC00F062FD00F055FD0000EC
:100950002A2A2A20617373657274696F6E2066613A
:10096000696C65643A2000002C2066696C65200083
:100970002C206C696E65200040EA0103024630B508
:100980009B0710D14FF0013400E008C208C91D1BBD
:100990009D4315EAC41FF8D013F0FF0102F8011BB4
:1009A0000DD01B0AF8E711F8013B002B02F8013BC0
:1009B00005D011F8013B002B02F8013BF3D130BD0B
:1009C00010B5431C02E010F8011B71B18107FAD188
:1009D0004FF0013202C88C1A8C4314EAC211F9D0CC
:1009E000C01A0A0603D0C01E10BDC01A10BD0A04EA
:1009F00001D0801E10BD0902FCD0401E10BD40EA8F
:100A0000010370B59B072ED14FF00136042A2AD37B
:100A100008C810C99D1B9D43121F15EAC61517D0A3
:100A2000D8B2E1B2401A50EA056110D198B2A1B231
:100A3000401A50EA05410AD123F07F4024F07F415B
:100A4000401A50EA052102D1180EA0EB146070BDC7
:100A5000A342DBD018BA21BA884201D9012070BD67
:100A60004FF0FF3070BD0AB9002070BD10F8013B97
:100A700011F8014B63B1A3420AD1521E08D010F8FD
:100A8000013B11F8014B1BB1A34201D1521EEDD124
:100A9000181B70BD032A40F2308010F0030C00F0E8
:100AA000158011F8013BBCF1020F624498BF11F8A8
:100AB00001CB00F8013B38BF11F8013BA2F1040261
:100AC00098BF00F801CB38BF00F8013B11F00303D9
:100AD00000F06B80083AC0F0088051F8043B083AF7
:100AE00051F804CBA0E80810F5E7121D5CBF51F8DF
:100AF000043B40F8043BAFF30080D20724BF11F859
:100B0000013B11F801CB48BF11F8012B24BF00F8BD
:100B1000013B00F801CB48BF00F8012B7047431A96
:100B200028BF9A427FF6B6AF032A1044114440F220
:100B3000268010F0030F1EBF11F8013D521E00F871
:100B4000013D10F0030F7FF4F6AF11F0030300F046
:100B50007B84083AC0F00B8051F8043D083A51F804
:100B600004CD40F8043D40F804CDFFF7F3BF121D5B
:100B70005CBF51F8043D40F8043DAFF30080D2075C
:100B800024BF11F8013D11F801CD48BF11F8012C27
:100B900024BF00F8013D00F801CD48BF00F8012C4A
:100BA000704701B5FFF776FF01BD10B5203AC0F0E0
:100BB0000B80B1E81850203AA0E81850B1E818505E
:100BC000A0E81850BFF4F5AF5FEA027C24BFB1E89B
:100BD0001850A0E8185044BF18C918C0BDE810400C
:100BE0005FEA827C24BF51F8043B40F8043B08BF15
:100BF0007047D20728BF31F8023B48BF11F8012BDC
:100C000028BF20F8023B48BF00F8012B704701F0D5
:100C1000FF03114601B543EA032242EA024200F013
:100C200003F801BD4FF000020429C0F0128010F05B
:100C3000030C00F01B80CCF1040CBCF1020F18BFB8
:100C400000F8012BA8BF20F8022BA1EB0C0100F04B
:100C50000DB85FEAC17C24BF00F8012B00F8012B1E
:100C600048BF00F8012B70474FF0000200B5134653
:100C700094469646203922BFA0E80C50A0E80C50BC
:100C8000B1F12001BFF4F7AF090728BFA0E80C506D
:100C900048BF0CC05DF804EB890028BF40F8042B66
:100CA00008BF704748BF20F8022B11F0804F18BFD3
:100CB00000F8012B704700004FF0013C50F8042B66
:100CC00051F8043B9A4221D1A2EB0C03934313EA5F
:100CD000CC1317D150F8042B51F8043B9A4215D18C
:100CE000A2EB0C03934313EACC130BD150F8042B63
:100CF00051F8043B9A4209D1A2EB0C03934313EA47
:100D0000CC13DBD04FF00000704700BFD01A01BAFF
:100D1000B1FA81F101F0180122FA01F0CB40C1F1E2
:100D20002001DBB2C0B2C01A2CFA01F3D11A9143F0
:100D300011EAC311E6D1704770477047704770479A
:100D400010B500F0AFFB001D10BD00BF219E0100DB
:100D500000487047A894012000487047A0940120E3
:100D6000704770477047704738B504460A46002000
:100D70006946AFF30080002808BF38BD02460099DD
:100D8000204600F093FB012038BD012000F0B5BCE7
:100D9000F8B5AFF30080054600200C46102000BFD8
:100DA0000646A819A0420DD9324669460020AFF385
:100DB0000080070008BF00F0A0FC0098A04218BF08
:100DC0000546C419FFF7C4FF05600746F01D20F073
:100DD00007004619284600F00AF8B44208BFF8BDDB
:100DE000A21B31463868BDE8F84000F05FBB002127
:100DF0000160C0E9011070471020704710B5FFF77F
:100E0000ABFF006810BD10B50446FFF7A5FF0460F6
:100E100010BD2DE9F0470D4699469246044600F173
:100E200024080168880604D5E06921F010012160DA
:100E300000E00120A84201DD471B00E00027A16976
:100E40007A1902EB0900081AA0612078C00602D4C2
:100E50002046FFF79BFB002608E0D4E901211AF8A1
:100E600006009047206A401C761C20624E45F4DB49
:100E70002078C0060AD52046FFF788FB06E0D4E9B3
:100E8000012130209047206A401C2062381EA7F1C3
:100E90000107F4DC07E0D4E9012118F805009047C8
:100EA000206A401C2062281EA5F10105F3DC2046C3
:100EB000FFF782FB2078000602D50220BDE8F0870C
:100EC0000120FBE770472DE9FF4F0C461E464FF00F
:100ED000FF378BB0D2E90001DDF860800A908A46C6
:100EE000C1F30A5505B93D46002108464FF0000000
:100EF000BAF1000F00F4400005DA00EB80004FF477
:100F0000400101EA50004FEA9059B9F1010F00DDAC
:100F1000B9460A9850EA4A000ED044F61050A5F29D
:100F2000FF3545432F14B8F1000F1ED07542291E1E
:100F30001EDDC9F100021CE0B8F1010F4FF0000006
:100F400001D0302103E0F24305E02154401CB042BF
:100F5000FBDB30460022002121540B99C1F80880A8
:100F6000C1E900200FB0BDE8F08FBD1B6D1CDEE7AE
:100F70004A4600DA694206A800F046FB06AB93E851
:100F8000070003AB83E8070050460A9900F049FCCC
:100F90008DE80700A0F500501F3800900398002D41
:100FA0000ADD42F21F014A460844002303A90390C8
:100FB000684600F0B2FE09E0A0F500504A461F382E
:100FC000002303A90390684600F0BCFE8DE80700EB
:100FD0000004000C03D04FF0FF30410800E0104641
:100FE000B8F1000F03D00022009215461EE0751ED6
:100FF00005D400F075FA303262556D1EF9D5B3464E
:101000000122084302D000227F1C04E0207830280F
:1010100001D100227F1E002A099784D01DE0112DE6
:1010200007DA00F05DFA303262556D1C50EA0102B9
:10103000F5D1084302D00098C8B10EE00021681E27
:1010400005E0235C625C63542254401E491C8142CB
:10105000F7DBAB46A81B401E0990002004F80B00EC
:101060000B98099AC0F80880C0E9002B7AE711268E
:101070004FF0000857E72DE9F04F88460446D21D8F
:1010800022F0070191B0D1E90001CDE90A0113F086
:10109000ABFC02460B98C00F01D02D2007E0206862
:1010A000810701D52B2002E0202101EAC000032A9C
:1010B000099001D0072A05DB03464146204600F08F
:1010C00055FA0BE12078800601D5E06900E00620A2
:1010D000B8F1650F814606D0B8F1660F18D0B8F1A7
:1010E000670F70D131E00020B9F1110F009001DBE2
:1010F000112301E009F101030AAA01A90CA8FFF7D5
:10110000E2FEDDE90C70002609F10105834647E0A7
:1011100001204B4600904FF000470AAA01A90CA8F5
:10112000FFF7D1FEDDE90DB00C995D46002610B940
:1011300009F101000D18B9EB050003D4C0F1FF3629
:1011400009F10105A5EB09002BE0B9F1010F01DA66
:101150004FF001090020B9F1110F0090484601DD60
:10116000112300E003460AAA01A90CA8FFF7ABFE71
:10117000DDE90C704D4600268346207800070AD42E
:10118000AB4500DA5D4601A8012D04DD411911F8D7
:10119000011C302907D04F4502DA17F1040F04DA99
:1011A000012082460FE06D1EEEE7002F02DCED1BF2
:1011B0003E4403E0781CA84200DD7D1CB81B00F112
:1011C000010A4FF000472078000703D4AA4501DB4D
:1011D0004FF0FF3A0021B7F1004F0DF143088DF8B1
:1011E000431024D002202B23002F01DA7F422D232D
:1011F0000A21021EA0F1010000DC5FB197FBF1FCA7
:1012000097FBF1F201FB1C7C17460CF1300C08F83F
:1012100001CDEEE7A8F1010003702188090501D591
:10122000452100E06521A0F1010800F8011C0998A2
:101230000FA9A1EB0807FF1D00B10120411901EB27
:10124000EA70A1693844081A401EA0612078C006DF
:1012500002D42046FFF79AF9099828B1D4E9012170
:101260009047206A401C20622078C00622D5204684
:10127000FFF78CF91EE0002E04DBB34502DD01A868
:10128000805D00E03020D4E901219047206A401CB5
:101290002062761CAAF101005FEA000A0AD100F080
:1012A00001F9C0680168405CD4E901219047206AD7
:1012B000401C2062281EA5F10105DCDC07E0D4E912
:1012C000012118F8010B9047206A401C2062381E4B
:1012D000A7F10107F3DC2046FFF76EF9032011B0F8
:1012E00041E6000001694A1C02610878704700B5B8
:1012F0008FB0CDE901310021059105497944CDE94F
:10130000031011466846FFF7F9F90FB000BD000061
:10131000E5FFFFFF0A6802F8010B0A607047D1E998
:1013200000239A4202D2531C0B601070704710B514
:10133000436913B1AFF3008001E0FFF74EF90120DC
:1013400010BD127800F124010A7000224A700122B7
:10135000EDE711684FF0FF32E9E72DE9F05F8246D3
:1013600015468B4600270AF10104B946007830285B
:1013700001D09DB113E014F8010B0127782803D0A8
:10138000582801D045B10AE00DB1102D07D1002732
:1013900014F8010B102502E0082500E00A250026BC
:1013A000B0460EE005FB080005FB06F101271FFA19
:1013B00080F801EB1046B6F5803F00D3B94614F82B
:1013C000010B294600F012F90028EBDABBF1000FFF
:1013D00005D00FB1641E00E05446CBF80040B9F1CF
:1013E000000F06D0FFF7B8FC02210160C81EBDE85F
:1013F000F09F48EA0640FAE710B5002000F076F9C1
:10140000FEF743FFBDE81040012013F0B0BB10B55C
:10141000044602E0641C13F0ACFB20780028F9D1EC
:1014200010BD431A28BF9A427FF6BFAB104410F09C
:10143000030F11441EBF11F8013D521E00F8013D7B
:1014400010F0030F7FF4F6AF103AC0F00A8010B529
:1014500031E91850103A20E91850BFF4F9AFBDE84F
:101460001040530724BF31E9081020E9081044BF99
:1014700051F8043D40F8043D12F0030F08BF7047D7
:10148000D20728BF31F8023D48BF11F8012C28BF10
:1014900020F8023D48BF00F8012C70470048704713
:1014A000A094012000487047C09401200346406882
:1014B0008C46002818BF88423CBF03464068F8D3DA
:1014C00018681844884207D00CF1030020F0070088
:1014D000001D411A521A0146081D0A60FEF766BF38
:1014E00030B5B0F10A024FEA900E71F100034EEAF6
:1014F000817EB0EB0E0061EB91014FEA101E4EEAC7
:10150000017E10EB0E0041EB11114FEA102E4EEA56
:10151000016E10EB0E0041EB11214FEA104E4EEA26
:10152000014E10EB0E0041EB1141401841F100015A
:101530004FEAD00040EA41704FEAD10110EB80053C
:101540004FEA810444EA907444EB01046D1944EBC2
:101550000404521BA3414FF0000348BF0A3200D5D8
:1015600030BD401C41F1000130BD00002DE9F041CB
:101570001F46044603260168072A01F4006004DBC5
:1015800008B116A505E016A503E008B115A500E011
:1015900015A521F010002060A069C01EA0610FB148
:1015A000401EA0612046FEF7F1FF4FB1D4E90121B2
:1015B00038469047206A401C2062C01C206206E02A
:1015C000206AFAE7D4E9012115F8010B9047761E4D
:1015D000F8D22046FEF7F0FFBDE8F0814E414E0004
:1015E0006E616E00494E4600696E66003A2800D270
:1015F000303820F02002412A01D3A2F1370088427E
:1016000001D34FF0FF3070472DE9F0478146164671
:101610008AB0354878440DC88DE80D0032487844CA
:10162000801C03AC0DC884E80D0041F69B300844D3
:10163000372190FBF1F290FBF1F5A5F1800501FB5C
:1016400012041B3C02D56442012000E00020DFF8B8
:1016500098A080460027FA44AAF1BE0A0EE0E007EF
:101660000AD03246684607EB470101230AEB8101A5
:1016700000F068FB8DE8070064107F1C002CEED1A1
:10168000194F7F44AE3F19E0E80715D007EB04106F
:101690000DF1180A90E80E008AE80E00C068F042CA
:1016A00001D1981908903246012306A903A800F039
:1016B00049FB03AB83E807006D10641C002DE3D1E8
:1016C0004FF0010332466946B8F1000F03A802D07B
:1016D00000F023FB01E000F035FBC9E90001C9F887
:1016E00008200AB0BDE8F087644A020010B500F097
:1016F0003FF8BDE8104000F035B810B500F050F8E4
:10170000BDE8104000F02EB87546FFF7C7FEAE46A4
:1017100005006946534620F00700854618B020B5FD
:10172000FEF7D8FDBDE820404FF000064FF000075F
:101730004FF000084FF0000B21F00701AC46ACE879
:10174000C009ACE8C009ACE8C009ACE8C0098D46E6
:10175000704710B50446AFF300802046BDE8104046
:10176000FEF79EBD002801D013F001BA70470000BB
:1017700010B5002102A000F03BF8012010BD0000D0
:10178000534947414252543A2041626E6F726D6133
:101790006C207465726D696E6174696F6E00000013
:1017A00010B5012805D0002103A000F021F8012088
:1017B00010BD09A1F8E7000053494752544D454D6B
:1017C0003A204F7574206F662068656170206D65E2
:1017D0006D6F7279000000003A2048656170206DDD
:1017E000656D6F727920636F7272757074656400D5
:1017F00070B505460C460A2000E06D1C13F0B9F9DF
:1018000035B128780028F8D102E0641C13F0B1F952
:1018100014B120780028F8D1BDE870400A2013F0F8
:10182000A8B95FEA400C08BF91F0000F4FEA8C2383
:101830004FEAC12243EA51514FEA1C5018BF00F54C
:10184000F0404FEA300018BF41F000415FEA6C5CA5
:1018500000F02980BCF1FF3F08BF40F08040704796
:10186000130C06BF12044FF0100C4FF0000C130EB7
:1018700004BF12020CF1080C130F04BF12010CF18B
:10188000040C930F04BF92000CF1020CD30F04BFA1
:1018900052000CF1010C11464FF00002A0F11F00A4
:1018A000A0EB0C00704711F0004F08BF704731F0FB
:1018B00000413FF4D5AF0B0C06BF09044FF0100CEC
:1018C0004FF0000C0B0E04BF09020CF1080C0B0FBB
:1018D00004BF09010CF1040C8B0F04BF89000CF14B
:1018E000020CCB0F04BF49000CF1010CCCF120031A
:1018F000A0EB0C0022FA03F302FA0CF241EA030116
:1019000000F10100704720F07F4C80EA030023F0D3
:101910007F47ACEB070303F57C5300F0004003F175
:10192000FF032DE980494FEA154B09B44FEA1443F0
:1019300025EA0B4E24EA03480FF2042606EB132790
:1019400049083E785FEA320203FB0667C7F50007E5
:1019500007FB06F64FEA54374FEAD64606F1020671
:1019600007FB066CCCF1005C4FEA1C472CEA074CE5
:1019700007FB06F40CFB06F504EB15464FEA96163A
:1019800034BF00204FF000404FEAD13706FB07FC80
:101990004FEA1C4C0CFB0BF7D21B03FB0CF761EB63
:1019A00007010CFB0EF7B0EB074072EB17420CFB84
:1019B00008F734BFA2EB0742B2EB074261EB1741D5
:1019C0004FEA0C444FEA910706FB07FC4FEA1C4C18
:1019D0000CFB0BF7B0EBC74072EB573203FB0CF775
:1019E00034BFA2EBC742B2EBC74261EB57310CFBED
:1019F0000EF7B0EBC70072EB57720CFB08F734BF61
:101A0000A2EBC702B2EBC70261EB5771039F4FEA2B
:101A1000816141EA921104EBCC044FEAD1374FEADD
:101A2000826206FB07FC42EA90124FEA80604FEAAE
:101A30001C4C0CFB0BF7D21B03FB0CF761EB0701F3
:101A40000CFB0EF7B0EB074072EB17420CFB08F7EC
:101A500034BFA2EB0742B2EB074261EB17414FEAFA
:101A60008C554FEA910704EB9C2406FB07FC4FEAD8
:101A70001C4C0CFB0BF7B0EBC74072EB573203FB6F
:101A80000CF734BFA2EBC742B2EBC74261EB573150
:101A90000CFB0EF7B0EBC70072EB57720CFB08F7AC
:101AA00034BFA2EBC702B2EBC70261EB577115EB73
:101AB0004C254FEA816141EA92114FEA82624FEA76
:101AC000D13742EA901206FB07FC44F100044FEACA
:101AD00080604FEA1C4C0CFB0BF7D21B03FB0CF78E
:101AE00061EB07010CFB0EF7B0EB074072EB1742FE
:101AF0000CFB08F734BFA2EB0742B2EB074261EBE5
:101B0000174115EB1C154FEA813141EA92414FEA2A
:101B1000823242EA90424FEA80304FEA0C7644F13A
:101B2000000448EA03434EEA0B484FF0000EB2EBC4
:101B3000080C71EB030724BF624639464EEB0E0ECC
:101B40004FF0000B0018524149414BEB0B0BB2EB2D
:101B5000080C71EB03077BF1000B24BF624639468A
:101B60004EEB0E0E4FF0000B0018524149414BEB6B
:101B70000B0BB2EB080C71EB03077BF1000B24BFDE
:101B8000624639464EEB0E0E51EA020718BF46F088
:101B9000010616EB0E7655F1000254F1000103D553
:101BA000BDE88901BDE80088BDE88901BDE80048BD
:101BB000B619524141EB0101A3F101037047808046
:101BC0007F7E7D7C7B7A7978777676757473727197
:101BD00071706F6E6E6D6C6C6B6A6A69686867664F
:101BE00066656464636362616160605F5F5E5E5DE1
:101BF0005D5C5C5B5B5A5A59595858575756565555
:101C000055555454535352525251515050504F4FB6
:101C10004F4E4E4D4D4D4C4C4C4B4B4B4A4A4A4906
:101C20004949484848474747474646464545454449
:101C30004444444343434342424242414141002BD6
:101C40009C4630D477002BD01CB54FEA370703B43D
:101C50004FF010004FF01001BAF1000F06D0BCF1A8
:101C6000000FDCBF40F0080040F008014FF000001A
:101C70000FBCBDE810400BF1010BBBF1010F08BF19
:101C80005FEA170722BF12F1010211F101014FF0C3
:101C9000004143F1000300F0004043EA00007047B8
:101CA000F9D35708D0E746EA064613F1400F4FEA4A
:101CB00016461FDD13F1200FDFBF16430A46002131
:101CC00020335B42BED0C3F1200746EA064602FA43
:101CD00007F74FEA164646EA0706C3F1200722FA3D
:101CE00003F201FA07F721FA03F14FF0000342EA89
:101CF0000702A7E746EA020646EA06464FEA164604
:101D000046EA0106BCBF46EA0646360C4FF0000321
:101D10004FF000024FF0000194E72DE9804C9A4605
:101D2000934670B491E8380007C831EA400C48BFC8
:101D300034EA430C03D5FFF7E6FDFFF780FFF0BC64
:101D4000BDE8008C2DE9804C9A46934670B491E82A
:101D5000380007C810F0804F08BF13F0804F03D140
:101D600000F005F8FFF76BFFF0BCBDE8008C20F039
:101D70007F4780EA030023F07F4C07EB0C03A3F5B9
:101D80007C5300F00040A3F1FE0392F0000F00F03E
:101D9000B38095F0000F00F077802DE901494FEAFC
:101DA00011404FEA144621EA004800FB06FC24EAF1
:101DB000064708FB06F607FB08F800FB07F718EBD9
:101DC00006484CEB164C4FEA124B18EB07484FEA0B
:101DD00015464CEB174022EA0B4E0BFB06FC25EA9E
:101DE00006470EFB06F607FB0EFE0BFB07F71EEB86
:101DF000064E4CEB164C4FF000061EEB074E4CEB1C
:101E0000174B18EB0B0840F1000018EB0E0B58EBCA
:101E1000000840F100008F1A4FF000013CBFC94399
:101E2000661B14BFB5EB040C00213CBFC943F61B75
:101E30004FEA17444EEA8E0E27EA04454FEA1C4744
:101E400004FB07622CEA074C05FB07F70CFB05F6C1
:101E500004FB0CFC16EB074642EB174216EB0C4654
:101E600042EB1C421BEB060658EB0202414146EADC
:101E70009E0601D5BDE80189B619524141EB010129
:101E8000A3F10103BDE801894FEA14454FEA114768
:101E900024EA054621EA074C05FB07F406FB07F791
:101EA0000CFB06F105FB0CFC11EB074144EB17445E
:101EB0004FEA124711EB0C4144EB1C4422EA074C59
:101EC00005FB07F206FB07F70CFB06F605FB0CFC0F
:101ED00016EB074642EB174216EB0C4642EB1C454D
:101EE0006A1854F1000148BF7047B619524141EBDE
:101EF0000101A3F10103704795F0000F37D04FEABD
:101F000011424FEA144721EA024624EA074C02FB39
:101F100007F106FB07F70CFB06F402FB0CFC14EBC5
:101F2000074441EB17414FEA154714EB0C4441EBD2
:101F30001C4125EA074C02FB07F506FB07F70CFBE3
:101F400006F602FB0CFC16EB074645EB174516EBB5
:101F50000C4645EB1C42121951F1000148BF704775
:101F6000B619524141EB0101A3F1010370474FEA59
:101F700014454FEA114724EA054621EA074C05FBC0
:101F800007F106FB07F70CFB06F24FF0000605FB16
:101F90000CFC12EB074241EB174112EB0C4251EBE8
:101FA0001C4148BF7047921841EB0101A3F10103A6
:101FB0007047000072B64EF62250CEF2000040F29A
:101FC000FF01C0F200010170002080F3098840F297
:101FD000CC10C2F20000016881F308880AF0F6FB19
:101FE00040F2E010C2F2000040F2E111C2F2000142
:101FF0000A78027040F21020C2F2000040F2142170
:10200000C2F200010A680260106880F30988EFF3E9
:10201000148040F0020020F0040080F31488BFF325
:102020006F8FBDE8F04F0FBCBDE8005006BC62B634
:10203000084726484FF080510160704772B640F261
:10204000D012C2F20002116881F31188BFF34F8FE2
:10205000BFF36F8F62B6EFF309801EF0100F08BF59
:1020600020ED108A20E9F04F40F21025C2F2000561
:102070002968086074460AF0A9FB40F2E010C2F239
:10208000000040F2E111C2F200010A78027040F251
:102090001421C2F200010A682A6044F0040E10689C
:1020A000B0E8F04F1EF0100F08BFB0EC108A80F3BC
:1020B000098840F20002C0F2000272B682F3118871
:1020C000BFF34F8FBFF36F8F62B6704704ED00E030
:1020D00008B500BF002000901848006840F4800058
:1020E000164908600846006800F48000009000BFB0
:1020F00000BF1348134908600020486000211148C0
:102100008160C1604FF480610161490041618900D3
:1021100081614911C161490201620021416204F0FB
:10212000EDFA08B100BFFEE700BF06480649886324
:1021300008460449886300BF08BD000030380240EB
:1021400010640240787100203071002000B587B023
:10215000142102A8FEF788FD00BF002001902C4842
:10216000006840F002002A4908600846006800F054
:102170000200019000BF00BF00BF00200190084690
:10218000006840F0020008600846006800F00200A5
:10219000019000BF00BF00BF00200190084600680A
:1021A00040F0040008600846006800F00400019058
:1021B00000BF00BF00BF002001900846006840F04B
:1021C000040008600846006800F00400019000BFA9
:1021D00000BF03200390002004900220029002A977
:1021E0000C4804F03DFC0120029002A9094804F0CB
:1021F00037FC0220029002A9074804F031FC0420B9
:10220000029002A9044804F02BFC07B000BD0000B6
:1022100030380240000402400008024010B5FFF7C9
:1022200095FFFFF755FF00F00DF8782203490448A9
:1022300004F020F908B100BFFEE710BDD8710020FE
:102240003071002000B585B000200190029003900D
:10225000049000BF00903348006840F4807031491A
:1022600008600846006800F48070009000BF00BF5E
:102270002D482E4908600020486000212B488160CD
:10228000012101610176002180F82010C1622849F6
:1022900081620021C1600421C161012180F83010F8
:1022A000416104F0B1F808B100BFFEE709200190D8
:1022B000012002900720039001A91C4803F0DAFFD7
:1022C00008B100BFFEE70B200190022002900390AE
:1022D00001A9164803F0CEFF08B100BFFEE70C20AD
:1022E0000190032002900220039001A90F4803F0FF
:1022F000C1FF08B100BFFEE7082001900420029052
:102300000720039001A9094803F0B4FF08B100BFFA
:10231000FEE70848006840F400000349C1F80403E0
:1023200005B000BD4438024000200140307100205B
:102330000100000F0423014070B50546AC6B206C12
:1023400000F0500050BB206C40F400702064206806
:10235000806800F04050E8B9207ED8B92068C06A93
:1023600000F4700020B12068806800F4806088B9B3
:102370002068406820F0200021684860206C20F42C
:1023800080702064206C00F4805018B9206C40F0FC
:1023900001002064204604F033F80BE0206C00F0CC
:1023A000100018B1204604F02DF803E0A06BC16CBA
:1023B0002846884770BD70B50546AC6B4020206448
:1023C000606C40F004006064204604F01BF870BDAF
:1023D00070B50446A56B284604F013F870BD0000E4
:1023E00055494A6822F440324A604A6843681A43B1
:1023F0004A600268526822F4807203685A60026878
:102400005368026943EA022203685A60026852680C
:1024100022F0407203685A600268526883681A4367
:1024200003685A600268926822F4006203689A6046
:1024300002689268C3681A4303689A603F4B826AD5
:102440009A4218D00268926822F0706203689A601B
:1024500002689268836A1A4303689A600268926805
:1024600022F0405203689A6002689268C36A1A4375
:1024700003689A600BE00268926822F07062036859
:102480009A600268926822F0405203689A6002687B
:10249000926822F0020203689A6002689368027EE2
:1024A00043EA420203689A602022125CA2B10268E9
:1024B000526842F4006203685A600268526822F46B
:1024C000604203685A6002685368426A521E43EAD7
:1024D000423203685A6005E00268526822F40062E2
:1024E00003685A600268D26A22F470020368DA62F2
:1024F0000268D36A828B521E43EA02520368DA6290
:102500000268926822F4007203689A600268936815
:1025100090F8302043EA422203689A600268926889
:1025200022F4806203689A6002689368426943EA11
:10253000822203689A607047002301400100000F67
:1025400010B507F025FC10BD70B506460C461546C3
:1025500008E03046721C96B200F016F804F8010B41
:10256000681E85B2002DF4D170BD000010B5044680
:10257000042204492046FFF7E7FF024890ED000AD5
:1025800010BD00009801002070B50446002607F039
:102590001FFD2546E11704EB11610912A02202EB91
:1025A0004101C8B207F0D2FC07F07AFDE11704EB55
:1025B00011610912A4EB0121C8B207F0C7FC07F0B2
:1025C0006FFD07F005FDE11704EB11610912A1226F
:1025D00002EB4101C8B207F0B9FC07F061FD002031
:1025E00007F048FC064607F027FD304670BD0000A6
:1025F00010B50446012203492046FFF7A5FF014814
:10260000007810BD9801002070B505460C461646AE
:1026100006E02178284600F013F8681C85B2641C97
:10262000301EA6F101018EB2F3D170BD31B52DED92
:10263000020B0446042269462046FFF7E5FF3EBD33
:1026400070B504460E4607F0C3FC2546E11704EBBF
:1026500011610912A02202EB4101C8B207F076FC19
:1026600007F01EFDE11704EB11610912A4EB012133
:10267000C8B207F06BFC07F013FD304607F066FCAC
:1026800007F00EFD07F0D8FC0A2004F0F7F870BD43
:1026900013B50446012201A92046FFF7B5FF1CBD72
:1026A00013B50446022201A92046FFF7ADFF1CBD69
:1026B000002800DC40427047014601F00F000A117B
:1026C00002EB820200EB4200C0B2704700B587B057
:1026D000142102A8FEF7C8FA00BF00200190284884
:1026E000006840F00400264908600846006800F0D1
:1026F0000400019000BF00BF00BF00200190084609
:10270000006840F0100008600846006800F0100003
:10271000019000BF00BF80200290012003900020A4
:102720000490059002A9174804F09AF9102002902D
:102730000120039000200490059002A9124804F0A3
:102740008FF908200290012003900020049005904A
:1027500002A90D4804F084F900228021094804F000
:1027600089FA00221021084804F084FA0022082186
:10277000054804F07FFA0BF0FDFC07B000BD000037
:1027800030380240000802400010024000BFFEE75F
:102790007047000010B510E011F8013B58400023CD
:1027A00009E000F001041CB1064C84EA500000E08E
:1027B00040085C1CE3B2082BF3DB131EA2F10102FC
:1027C000EAD110BD2083B8ED10B50520FFF710FF4A
:1027D00055282FD055210520FFF75AFF0A2004F075
:1027E0004DF801201B490870084600780DF09AF852
:1027F000184801780720FFF74BFF01210920FFF758
:1028000047FFB2EE040A1A20FFF710FFB0EE000AED
:102810001E20FFF70BFF9FED100A3620FFF706FF83
:1028200000213E20FFF73CFF01213A2009F054F936
:102830000DF0F0F9E220FFF7DBFEA52809D00EF03D
:10284000CDFB01213A2009F047F9A521E220FFF74D
:102850001FFF10BD590000200000C84200B587B01E
:1028600000BF002001902248006840F0200020496D
:1028700008600846006800F02000019000BF00BF1B
:102880000120029000200390012004900220059076
:1028900002A9184804F0E4F80220029002A91548A1
:1028A00004F0DEF80420029002A9124804F0D8F8DF
:1028B0000820029002A90F4804F0D2F810200290DC
:1028C00002A90C4804F0CCF82020029002A9094883
:1028D00004F0C6F84020029002A9064804F0C0F8AF
:1028E0008020029002A9034804F0BAF807B000BDA6
:1028F000303802400014024001460878103818238E
:10290000B0FBF3F20848805CC865032A05D9086863
:102910006FF30900001D886503E008686FF3090084
:102920008865886D70470000B0B40108014600203A
:102930008A6A8B69CBB932B1012A0DD0022A03D041
:10294000032A10D10EE000BFCB6A03F08073B3F10D
:10295000807F00D1012007E0CB6AB3F1C07F00D1B6
:10296000012001E000E000BF34E08B69B3F5005FB7
:102970001AD132B1012A07D0022A03D0032A11D179
:102980000AE000BF01200EE0CB6A03F08073B3F1D0
:10299000807F00D1012006E0CB6AB3F1C07F00D177
:1029A000012000E000BF15E032B1012A05D0022A63
:1029B00004D0032A0CD103E000BF00BF012008E0CF
:1029C000CB6A03F08073B3F1807F00D1012000E077
:1029D00000BF00BF704730B50468246824F4802429
:1029E00005682C60046863608468402C04D1046826
:1029F000A2600468E16003E00468A1600468E2602A
:102A000030BD000000B587B000BF0020019018481D
:102A1000006840F00400164908600846006800F0AD
:102A20000400019000BF00BF00BF002001900846D5
:102A3000006840F0400008600846006800F0400070
:102A4000019000BF00BF402002900120039004903D
:102A50000220059002A9074804F002F84FF48070A4
:102A6000029002A9044803F0FBFF07B000BD00007C
:102A7000303802400008024000180240704701460A
:102A80000A2091FBF0F200FB12100A2291FBF2F2F5
:102A900040EA0210C0B2704710B5202003F0D2FF08
:102AA00010BD000010B5002201B909E0012901D1D3
:102AB0000A0205E0022901D10A0201E04FF4407246
:102AC0000E4B1B6823F440730C4C236023461B6899
:102AD0001343236023461B6823F0F8032360234637
:102AE0001B68022444EAC0042343044C23602346A9
:102AF0001B6843F48033236010BD0000103C02408B
:102B00001C48006800F40070B0B11A48006820F456
:102B100000701849086000BF0846006840F4006073
:102B200008600846006820F40060086000BF08469E
:102B3000006840F4007008600E48006800F480608F
:102B4000B0B10C48006820F480600A49086000BFFA
:102B50000846006840F4805008600846006820F489
:102B60008050086000BF0846006840F4806008603C
:102B700070470000003C02400A4A126822F440728A
:102B8000084B1A601A46126842F004021A601A468C
:102B900012684FF4803343EA00231A43014B1A6052
:102BA00070470000103C0240074A126822F440724D
:102BB000054B1A601A4612681A601A46126842F0EB
:102BC00001021A6001707047103C024010B50D49B7
:102BD000096821F440710B4C21602146096841F4D9
:102BE000407121602146096841F0010121600260C5
:102BF00000BF00BF00BFBFF36F8F00BF00BF00BFAB
:102C0000436010BD103C0240084A126822F4407232
:102C1000064B1A601A46126842F480721A601A460D
:102C2000126842F001021A6001807047103C0240B5
:102C3000084A126822F44072064B1A601A4612685B
:102C400042F400721A601A46126842F001021A60D9
:102C500001607047103C02402348006800F01000FB
:102C600040B12248C06940F010002049C8611020DE
:102C70001D4908601C48006800F0200040B11B4856
:102C8000C06940F008001949C86120201649086051
:102C90001548006800F0400040B11448C06940F099
:102CA00004001249C86140200F4908600E480068BE
:102CB00000F0800040B10D48C06940F002000B49AF
:102CC000C8618020084908600748006800F00200D9
:102CD00040B10648C06940F020000449C8610220A4
:102CE00001490860704700000C3C02409C6D0020C8
:102CF00070B50446002500201449C86103F0C6FFE2
:102D0000054609E0601C38B124B103F0BFFF401B49
:102D1000A04201D9032070BD0D48006800F4803046
:102D20000028EFD10A48006800F0010010B101202E
:102D3000074908600648006800F0F20018B1FFF784
:102D40008BFF0120E7E70020E5E700009C6D0020F5
:102D50000C3C024070B504461D460023B5F5804F7B
:102D600013D154F822300C480340D1E9000640EA60
:102D700006108E6840EA06208E8940EA06408E6979
:102D80003043034344F8223003E06FF0704044F8CE
:102D90002200002070BD00000000F0CF10B50346F7
:102DA0000022086853F8202012480240D1E90104AB
:102DB0002043CC6820430C6920434C6920438C6934
:102DC0002043CC6920430C6A20434C6A20438C6A20
:102DD0002043CC6A2043CC6B20430C6B204302433E
:102DE0008868082801D142F04002086843F8202092
:102DF000002010BD8000F0FF30B503460024501CB9
:102E000053F8204004F04044D1E9000540EA0510A1
:102E10008D6840EA05208D8940EA0545088A401EF4
:102E200045EA0055087D801E45EA00608D6928430B
:102E30000443501C43F82040002030BDF0B52DED78
:102E4000048B9BB0FE48007828B30120FD49087030
:102E50000020FB4908701421FB48FDF7E3FEFB4806
:102E60000021016041600181F948016041600181F8
:102E7000F8480160416001812021F748FDF7D2FE4A
:102E80002021F648FDF7CEFEFF20F5490870F549F0
:102E90000870F5490870F5480078F54909788842C6
:102EA00026D00120E7490870F1480078EF49087002
:102EB0001421E548FDF7B6FEE448002101604160B9
:102EC0000181E348016041600181E24801604160A5
:102ED00001812021E048FDF7A5FE2021DF48FDF714
:102EE000A1FEFF20DE490870DE490870DE49087047
:102EF0000120E0490870E04800780CF013FD03F071
:102F0000C5FEDE490968401AB0F57A7F09D9DC4868
:102F10000AF000FFDB480AF0ACFE03F0B7FED74929
:102F2000086003F0B3FED8490968401AB0F5FA7F8B
:102F30000DD908F0E7FCD54880ED000A03F06CF9E4
:102F4000D34880ED000A03F0A1FECF490860CC48C9
:102F500000780090CA4843788278CEA116A8FDF781
:102F6000E7FACA48D0ED008A9FEDCE0AF4EEC08A97
:102F7000F1EE10FA03DD9FEDCB0AF0EE408A18EE79
:102F8000900A18F0E7F841EC190B53EC192BC6A185
:102F900013A8FDF7CDFAC64890ED040A10EE101AFA
:102FA000084618F0D7F841EC190B53EC192BBEA1C9
:102FB00010A8FDF7BDFAB64890ED008A90ED000A22
:102FC000F7EE000AB4EEE00AF1EE10FA03D2B3EE27
:102FD000080AB0EE408A18EE100A18F0BBF841EC6F
:102FE000190B53EC192BB3A10DA8FDF7A1FA02217F
:102FF000B24803F037FE06460121B04803F032FE26
:103000000546B3EE040AB4EEC08AF1EE10FA01D818
:10301000012412E0B3EE080AB4EEC08AF1EE10FA11
:1030200001D2022409E09FEDA60AB4EEC08AF1EEB7
:1030300010FA01D2032400E004248248007800281A
:103040007ED06FF07F4002F0EFFC01F0FCFE9D4966
:1030500003C9CDE90B016FF07F409B49CDE900101A
:10306000BDF93230BDF93020BDF92E10BDF92C006C
:1030700002F0D6F84FF4000002F0E1FC0820232310
:1030800040F23B1205210090084602F047FA8E48B4
:1030900002F0D5FC0820232340F23B1205210090CA
:1030A000084602F079F9894802F0C9FC24234FF45C
:1030B0009E721946062002F0EFF86FF07F4002F092
:1030C000BEFC08205A239B22282100900A2002F0EF
:1030D00025FA4FF4000002F0B2FC08205A239B228C
:1030E000282100900A2002F057F96FF07F4002F08B
:1030F0009BFC4FF4000002F0A2FC754802F0B0FC0B
:103100002D220F2173A002F03BF87548027875A1BB
:1031100008A8FDF70DFA754802F0A2FC6FF07F4099
:1031200002F082FC4FF4000002F089FC41221021E1
:1031300008A802F025F86FF07F4002F080FC00E064
:10314000E6E108205A234FF49B7228210090A52025
:1031500002F0E4F94FF4000002F071FC08205A2359
:103160004FF49B7228210090A52002F015F96FF012
:103170007F4002F059FC4FF4000002F060FC54481C
:1031800002F06EFC2D22AA2159A001F0F9FF6FF088
:103190007F4002F054FC0820912369225F210090B7
:1031A0000A2002F0BBF94FF4000002F048FC0820AE
:1031B000912369225F2100900A2002F0EDF86FF060
:1031C0007F4002F031FC4FF4000002F038FC404830
:1031D00002F046FC64220F2147A001F0D1FF4948CC
:1031E000006817F0B7FF41EC190B53EC192B2EA117
:1031F00005A8FDF79DF93D4802F032FC6FF07F40D5
:1032000002F012FC4FF4000002F019FC78221421A5
:1032100005A801F0B5FF3C4802F022FC7D223721D1
:103220003AA001F0ADFF6FF07F4002F008FC0820EB
:103230009123CF225F210090702002F06FF967E0A8
:10324000570000209100002093630020A763002016
:10325000B1630020BB630020C5630020E56300204C
:103260009300002094000020950000209200002090
:103270007000002056000020590000209800002017
:103280008A0000208D0000209C0000206C0000209F
:1032900068000020253032643A253032643A253007
:1032A000326400000000FA42252E31660000000062
:1032B000646E0020252E3166560000000014024086
:1032C0000000044228B301088080FF00C0C0C00095
:1032D000E4F40108C9E8B1B8D0C5CFA200000000ED
:1032E0005C00002049443A2530336400805B0208CA
:1032F000CEC2B6C800000000B3ACD1B9D1B9C1A6E6
:103300000000000060000020B04B02084D5061003A
:103310004FF4000002F093FB08209123CF225F219D
:103320000090702002F038F86FF07F4002F07CFBD4
:103330004FF4000002F083FBFE4802F091FB642290
:103340007521FDA001F01CFFFE48006817F002FF88
:1033500041EC190B53EC192BAFF2B40102A8FDF7A5
:10336000E7F8F94802F07CFB6FF07F4002F05CFB6D
:103370004FF4000002F063FB7822114602A801F02E
:10338000FFFEF24802F06CFB7D22A021AFF2840028
:1033900001F0F6FE6FF07F4002F051FB0820912310
:1033A0004FF49B725F210090D62002F0B7F84FF4E3
:1033B000000002F044FB082091234FF49B725F2130
:1033C0000090D62001F0E8FF6FF07F4002F02CFB68
:1033D0004FF4000002F033FBD64802F041FB6422B8
:1033E000DB21DBA001F0CCFE6FF07F4002F027FB79
:1033F0000820C8239622114600900A2002F08EF879
:103400004FF4000002F01BFB0820C823962211464F
:1034100000900A2001F0C0FF6FF07F4002F004FB33
:103420004FF4000002F00BFBC24802F019FB9B2294
:103430000F21CAA001F0A4FE6FF07F4002F0FFFA56
:103440000820C8234FF49B7296210090A02002F020
:1034500065F84FF4000002F0F2FA0820C8234FF498
:103460009B7296210090A02001F096FF6FF07F40A4
:1034700002F0DAFA4FF4000002F0E1FAAD4802F08F
:10348000EFFA9B22A521B8A001F07AFE9B22F02141
:10349000B8A001F075FE4FF4000002F0D0FA082049
:1034A000EB234FF49B72CD2100900A2002F036F8F6
:1034B000B34802F0C4FA0820EB234FF49B72CD21ED
:1034C00000900A2001F068FFAE4802F0C9FA4FF4FC
:1034D000000002F0A9FAAC4802F0B1FAD2221E2193
:1034E000AAA001F04DFEAF4802F0A9FAEC2340F289
:1034F000371219460B2001F0CFFEEC2340F23712B1
:103500002921104601F0C8FE0020A749087000BF1D
:10351000A649A748FDF7D0FBE8B14FF4000002F040
:103520008EFA1E2378220A21084601F0C1FF954831
:1035300002F096FA4FF4000002F076FA6FF07F4046
:1035400002F07DFA08220C21984801F019FE9749F3
:103550009748FDF711FA16A99648FDF7ADFBE8B1BB
:103560004FF4000002F06BFA2023D22208218220BF
:1035700001F09EFF744802F073FA4FF4000002F06D
:1035800053FA6FF07F4002F05AFA0922842116A8FC
:1035900001F0F6FD16A98748FDF7EEF98648007898
:1035A000A04205D10DA98548FDF786FB00285DD016
:1035B0004FF4000002F043FA1E234FF49B720821DF
:1035C000DC2001F075FF6FF07F4002F038FA1B231A
:1035D0004FF482720D21EB2001F082FE17234FF48D
:1035E00083721121901E01F063FF754903C9CDE973
:1035F0000B0104EB8400ED30ADF83000012C06D057
:10360000022C08D0032C0BD0042C13D10DE0FF208A
:1036100002F015FA0EE04AF2FF5002F010FA09E04B
:103620004FF6FF7002F00BFA04E04FF47F4002F017
:1036300006FA00BF00BF0BA801F066FF4FF40000C0
:1036400002F0F2F9414802F00BFA6FF07F4002F00D
:10365000F6F90C224FF487710DA801F091FD564840
:1036600004700DA95548FDF787F900BF13A9554807
:10367000FDF722FB60B36FF07F4002F0E0F95523C5
:1036800040F231124121AA2001F012FF2E4802F02F
:10369000E7F96FF07F4002F0C7F94FF4000002F045
:1036A000CEF94122AA2113A801F06AFD13A802F065
:1036B00001F807461F4802F0D3F907F1AC01412297
:1036C00041A001F05DFD13A93E48FDF755F900BF8B
:1036D00010A93E48FDF7F0FA40B36FF07F4002F0CA
:1036E000AEF98C2340F231127321DB2001F0E0FEB1
:1036F000154802F0B5F96FF07F4002F095F94FF4EC
:10370000000002F09CF97822DC2110A801F038FDBD
:103710000E4802F0A5F97D224FF48271AFF21440F9
:1037200001F02EFD10A92948FDF726F9284929485E
:1037300052E00000E4F40108C7B7D1B9D1B9C1A67D
:103740000000000064000020805B0208B04B02080B
:10375000B5B1C7B0D1B9C1A600000000D4CBD0D05C
:10376000D7B4CCAC00000000B7A7C3C5BFAACEBB7E
:1037700000000000B7A7C3C5B9D8CEBB0000000049
:103780008080FF0088370208D3D3D300CFA3B7F0DF
:10379000C2A1B7A7C3C5BCAFCDC5D3D0CFDEB9AB2F
:1037A000CBBE0000C0C0C000910000202800002057
:1037B000E56300209363002095000020BB63002098
:1037C00030B30108A7630020A1E60000B163002028
:1037D00046000020C5630020FDF76EFAE8B16FF0E7
:1037E0007F4002F02CF9C3234622AF210F2001F0C5
:1037F0005FFE6FF07F4002F017F94FF4000002F017
:103800001EF9344802F02CF9B2220F21324801F09F
:10381000B7FC31493148FDF7AFF831480078B04284
:1038200025D096B94FF47F4002F009F90822B9215A
:10383000C82001F0E3FD4FF4004002F000F9082237
:10384000B921C82001F0B0FC0FE0264802F0F7F8DB
:103850000822B921C82001F0D1FD234802F0EFF879
:103860000822B921C82001F09FFC1D4806701F489E
:103870000078A84229D0A5B94FF47F4002F0DFF8C4
:103880000822B92140F2131001F0B8FD4FF40040B6
:1038900002F0D5F80822B92140F2131001F084FC9F
:1038A00011E0104802F0CBF80822B92140F21310C1
:1038B00001F0A4FD0C4802F0C2F80822B92140F240
:1038C000131001F071FC094805701BB0BDEC048BAE
:1038D000F0BD0000E4F4010846000020C5630020AC
:1038E0009300002080808000404040009400002031
:1038F00010B5044604F13A0188B208F0E1F810BDB1
:103900007CB50546002001900090002404E00020D2
:1039100048490855601CC4B2122CF8DB05EBC50001
:103920004100122243480DF0CDFB4248807A8DF8C9
:1039300004004048C07A8DF805003E48007B8DF8B1
:1039400006003C48407B8DF807003A48807B8DF8A4
:1039500000003848C07B8DF801003648007C8DF8A7
:1039600002003448407C8DF803003248007800F0B3
:103970003F00314908702F48407800F00F00487030
:103980002C48807800F01F0088702A48C07800F02A
:103990003F00C8702748007900F03F0008712548B3
:1039A000407900F03F0048712248807900F007001C
:1039B00088712048C079C8711E48007A00F00F0055
:1039C00008721C48407A00F00F0048729DF804000D
:1039D0009DF8051000EB01209DF8061000EB01405A
:1039E0009DF8071000EB016000EE100AB8EEC00A67
:1039F000DFED120A80EE201A0F4880ED031A9DF8C1
:103A000000009DF8011000EB01209DF8021000EB72
:103A100001409DF8031000EB016000EE100AB8EEC3
:103A2000C00ADFED060A80EE201A034880ED041A72
:103A30007CBD0000C47000209C7000200000C842C3
:103A40002DE9F0472DED028B074688469146B0EEF2
:103A5000408AF0EE608A002500269FED310A28EEAC
:103A6000000ABCEEC00A10EE105A9FED2D0A28EE97
:103A7000800ABCEEC00A10EE106A0020FFF738FF83
:103A800004462848844200D9012427480460274876
:103A9000007800F03F00264908702448407800F084
:103AA0000F0048702148807800F01F00887021487E
:103AB000807800F01F00C8701E48407800F03F007A
:103AC00008711C48007800F03F00487107F00700BB
:103AD000887119480078C87108F00F00087209F061
:103AE0000F0048728D72280AC872280C0873280EBD
:103AF00048738E73300AC873300C0874300E4874E3
:103B000004EBC4004100122209480DF04EFB641C76
:103B100021463A2007F0E0FFBDEC028BBDE8F087BC
:103B20000000C842FEFF07009C0100208D0000201D
:103B3000B07000208A0000205C0000202DE9F04FCA
:103B40002DED048B97B0FE480078F0B10120FD49BF
:103B500008700020FA490870FB4908700120FB49F1
:103B600008701421FA48FDF75DF8FA480021016059
:103B700041600181FF20F84908700020F749086082
:103B8000F7490860F749086008E0EF48007828B175
:103B90000020ED4908700120EC4908700120F2492D
:103BA000087003F073F8F1490968401AB0F57A7F9C
:103BB00009D9EF480AF0AEF8EE480AF05AF803F0D7
:103BC00065F8EA49086003F061F8EB490968401AB2
:103BD000B0F5FA7F08D902F01FFBE84880ED000A33
:103BE00003F054F8E449086000200E90DC48D0F857
:103BF00000A003F04BF8D9490968401AB0F5FA6FF4
:103C000008D8D248007828B9DD480068D549096845
:103C1000884220D00020FFF76BFE8246D048006823
:103C2000824508D1D6480068CE490968884202D149
:103C3000C648007840B101200E90C948C0F800A0E5
:103C4000CF480068C749086003F020F8C3490860FE
:103C50000020BE490870C64800780090C4484378E8
:103C60008278C8A112A8FCF763FCC44890ED008AD2
:103C700090ED000AF7EE000AB4EEE00AF1EE10FA59
:103C800003D2B3EE080AB0EE408A18EE100A17F01D
:103C900061FA41EC190B53EC192BBEA10FA8FCF7EC
:103CA00047FCB3EE040AB4EEC08AF1EE10FA01D874
:103CB000012612E0B3EE080AB4EEC08AF1EE10FA63
:103CC00001D2022609E09FEDB50AB4EEC08AF1EEFA
:103CD00010FA01D2032600E004269A480078002852
:103CE00069D06FF07F4001F09FFE01F0ACF8AC4965
:103CF00003C9CDE90C016FF07F40AA49CDE900105E
:103D0000BDF93630BDF93420BDF93210BDF93000AF
:103D100001F086FA4FF4000001F091FE0820232301
:103D200040F23B1205210090084601F0F7FB9D4848
:103D300001F085FE0820232340F23B12052100906C
:103D4000084601F029FB984801F079FE24234FF43E
:103D50009E721946062001F09FFA944801F080FEF9
:103D60004FF4000001F060FE6FF07F4001F067FE4D
:103D700008220C218EA001F003FA904801F05FFEAA
:103D80000A20EB2340F23B1228210090052001F08D
:103D9000C5FB8B4801F053FE0A20EB2340F23B1297
:103DA00028210090052001F0F7FA002065490870ED
:103DB00001200E9000BF0E98002874D06848076854
:103DC0007E4801F03CFE3A234FF49A722A210C20DF
:103DD00001F06EFB7A4801F032FE3C2340F23112D2
:103DE00019460F2001F058FA744801F01DFE75487D
:103DF00001F025FE744801F033FE012F14D97C1E1A
:103E00005F480068051DA54200D925462B465C4841
:103E100000946EA102687248FCF78AFB2B22C8212D
:103E20006F4801F0ADF904E02B22C8216DA001F02C
:103E3000A7F90025F5E15248006800EB050905EBFC
:103E400005103E2101EB400084B24FF01F08B94538
:103E50002AD3674801F0F3FD082004EB08034FF470
:103E60009B72214600900A2001F058FB614801F046
:103E7000E6FD082004EB08034FF49B7221460090F6
:103E80000A2001F089FA5A4801F0CEFD5A4801F0A3
:103E9000D6FD5A4801F0E4FD04F10802802158A043
:103EA00001F06EF9BCE1C0E1A7EB0900FFF728FDC6
:103EB000284605EBD0714910A5EB410111B96FF00F
:103EC0007F4100E051490D91284605EBD071491022
:103ED000A5EB410109B94E4900E04E490C910D98FE
:103EE00001F0ADFD082004EB08034FF49B7221465E
:103EF00000900A2001F012FB0C9801F0A0FD0820B0
:103F000004EB08034FF49B72214600900A2001F055
:103F100043FA0D9801F088FD3F4801F090FD2A48D2
:103F200001F09EFD4A462CA12D48FCF701FB621CC6
:103F300010212B4801F024F9234801F091FD6DE098
:103F400057000020D400002058000020E40000208A
:103F50007364002087640020D5000020D800002072
:103F6000DC000020E000002056000020E8000020D7
:103F70008A0000208D000020EC0000206800002056
:103F8000A4010020253032643A253032643A2530CD
:103F900032640000252E3166560000000000044205
:103FA000A0B401088080FF00C0C0C00088370208AC
:103FB000C0FACAB7BCC7C2BC00000000FFF4EA00E8
:103FC000E4CCB8007A6B5B00B04B02082530336C50
:103FD000752D2530336C752F2530336C750000003E
:103FE0002C6300203030302D3030302F3030300016
:103FF000F6F4F300DBD5D100AFA39C00E4F4010894
:10400000D4DDCEDEBCC7C2BC00000000FCFAF80064
:10401000F6823B0081B9100051413700CC4840790D
:10402000CB490979CA4AD278C94B9B78CDE900328D
:10403000CDE90210C64843780278C6A1CD48FCF706
:1040400077FA621C2E21CB4801F09AF8CA4801F099
:1040500007FDCA4801F0F3FCBD4890ED030A10EEDD
:10406000101A084617F076F841EC190B53EC192B8F
:10407000C3A1C048FCF75CFA04F10F022E21BD4831
:1040800001F07EF8B24890ED040A10EE101A0846CE
:1040900017F060F841EC190B53EC192BBAA1B54895
:1040A000FCF746FA04F10F027621B24801F068F8F5
:1040B000B04801F0FFFA0B90B54801F0D1FC0B9825
:1040C00000F1760104F10F02B2A001F059F8AA48FC
:1040D00001F0C6FCAE4801F0C3FC00200890099036
:1040E0000A900590069007904FF47F00049000120C
:1040F0000390B4200290F620019004F10F0000908C
:104100004FF0010B9248007A062827D2DFE800F032
:104110000327060E161E4FF0000B28E09EA108A8EC
:10412000FCF72AFC4FF47F00049020E09DA108A832
:10413000FCF722FC4FF47F00049018E09CA108A833
:10414000FCF71AFC4FF47F00049010E09BA108A834
:10415000FCF712FC4FF47F00049008E000BF9AA126
:1041600008A8FCF709FC4FF47F00049000BF00BFD3
:104170007748407A072831D2DFE800F030040C1489
:104180001B22290093A105A8FCF7F6FB4FF47F4002
:1041900003902AE091A105A8FCF7EEFB4FF47F40C5
:1041A000039022E08FA105A8FCF7E6FBFF20039017
:1041B0001BE08FA105A8FCF7DFFBFF20039014E0B4
:1041C0008EA105A8FCF7D8FBFF2003900DE08EA17F
:1041D00005A8FCF7D1FBFF20039006E08DA105A800
:1041E000FCF7CAFB6548039000BF00BFBBF1000F9E
:1041F00007D0049801F023FC08A8009A029900F067
:10420000BFFF039801F01BFCBBF1000F01D0019828
:1042100000E0CC20014605A8009A00F0B1FF00BFE5
:104220006D1C052DFFF607AE00BF12A97B48FCF7F9
:1042300043FDE8B14FF4000001F001FC2023D2223D
:104240000821822001F034F9754801F009FC4FF48F
:10425000000001F0E9FB6FF07F4001F0F0FB092264
:10426000842112A800F08CFF12A96C48FCF784FB93
:104270006C480078B04204D10FA96B48FCF71CFDD4
:1042800090B34FF4000001F0DAFB1E234FF49B7251
:104290000821DC2001F00CF96FF07F4001F0CFFB2A
:1042A0001B234FF482720D21EB2001F019F8172324
:1042B0004FF483721121901E01F0FAF85B4903C993
:1042C000CDE90C0106EB8600ED30ADF83400012E8F
:1042D00006D0022E09D0032E0CD0042E14D10EE0ED
:1042E000FF2001F0ACFB0FE02AE04AF2FF5001F0A2
:1042F000A6FB09E04FF6FF7001F0A1FB04E04FF4CC
:104300007F4001F09CFB00BF00BF0CA801F0FCF84F
:104310004FF4000001F088FB174801F0A1FB6FF09B
:104320007F4001F08CFB0C224FF487710FA800F046
:1043300027FF3C4806700FA93B48FCF71DFB00BF58
:1043400000203B49087017B0BDEC048BBDE8F08F2E
:104350009C7000203230253032642D253032642D9F
:104360002530326420253032643A253032643A25D3
:10437000303264002C630020B04B020880726B0066
:10438000252E31664D506100252E3166000000005B
:10439000E4F40108A1E60000D4B6B3CCB9D8B7A7BD
:1043A00000000000B3ACD1B9B9D8B7A70000000035
:1043B000C7B7D1B9B9D8B7A700000000B3ACCEC217
:1043C000B9D8B7A700000000CAD6B6AFB2D9D7F7A0
:1043D00000000000D2D1BFAAB7A70000D2D1B9D83F
:1043E000B7A70000BFAAB7A7B9CAD5CF0000000081
:1043F000B9D8B7A7B9CAD5CF00000000B4ABB8D0C0
:10440000B9CAD5CF00000000B5E7BBFAB6C2D7AA3B
:1044100000000000CEB4D6AA0000000073640020A3
:10442000805B0208D500002087640020A8B4010842
:104430005600002010B504460A2812D00D2C14D0C6
:1044400001F0CCF909480068C06901682046884736
:104450000748016809B120468847BDE8104001F0CF
:10446000B1BBBDE8104000F0F5BD10BD0C0300204D
:10447000500300202DE9F0478146884640F2C320D2
:1044800050434FF47A7190FBF1F502FB02F002EB1E
:10449000D27100EB610617460023414648466D1C69
:1044A0000DF0F4FD012413E004FB04F007FB07000A
:1044B000B04206DD3B462246414648460DF0E6FD49
:1044C0007F1E3B462246414648460DF0DFFD641CF8
:1044D000AC42E9DDBDE8F0871CB50024019401ACD5
:1044E000009400F001F81CBD2DE9F04780464448D7
:1044F00086B0164600680E9C1D46027E0F46012AB5
:104500001CD0A8EB0600791B50EA010323D0A2F1CE
:10451000010910F0BBFA00F58060824601F04BFE05
:1045200000FB09F4504601F04BFE00FB09F1002CA2
:1045300014DAC4F500708012404212E0012001F04C
:1045400087FD2B4632463946404600940EF01AFD50
:10455000002001F07DFD06B0BDE8F08704F5007491
:10456000A012002904DAC1F5007189124C4202E060
:1045700001F500718C12002804DD411C01EBD171A2
:10458000491003E000EBD0714910401E00EBD070E1
:104590004210002C04DD601C00EBD070401003E0E2
:1045A00004EBD4704010641E04EBD47308EB0104D8
:1045B000ADF804403C18ADF80640A8EB02045B10CF
:1045C000B21AADF80840ADF80C203144FC1AEA1AD2
:1045D000ADF810102844ADF80E20ADF812000023FD
:1045E000ADF80A401A46042101A800F079F83946CE
:1045F00040460EF0ADFD294630460EF0A9FDAAE773
:104600000C030020064A13681A7E012A05D0521EA8
:1046100002EBD272521000F005B81A6E52681047C1
:104620000C0300202DE9F05F0646884640F2C320C7
:1046300002FB00F14FF47A7091FBF0F702FB02F1FC
:1046400002EBD27001EB600B1446B118234A301B09
:104650007F1C1268126E13680A464146984701256E
:1046600038E000BF05FB05F004FB040159451CDDE3
:10467000BC4219DD194B06EB050AA6EB05091B68C0
:10468000AAF1010208EB04011B6E09F101001B688D
:104690009847124BAAF10102A8EB04011B6809F12B
:1046A00001001B6E1B689847641E0C4B3219301BAF
:1046B0001B68924608EB05011B6E81461B689847F4
:1046C000064B5246A8EB05011B6848461B6E1B684B
:1046D00098476D1CBD42C5DDBDE8F09F0C0300206E
:1046E0002DE9FF4F43F6FF740F46664283B09B46A9
:1046F000814600210BE000BF09EB8100B0F9020008
:10470000A04200DA0446B04200DD0646491CB94228
:10471000F2DB67480068406900280DD0B0F9061048
:104720001A46A1EB0B01B14200DA0E46B0F90200C5
:10473000801AA04200DD0446B4E0DFF878A1002032
:104740000546CAF8000088E0781E854201DA6B1C35
:1047500000E0002309EB850C09EB8302BCF90200A1
:10476000B2F90210A04244D1A14215D139F9233047
:10477000059A39F9251003EB020C4D4A0598126889
:10478000084404EB0B01126E6045136801DA6246BF
:104790002AE00246604627E02846A4464FF000087B
:1047A0007A1E0BE008B1401E00E0781E09EB800382
:1047B000B3F90230634504D108F101089045F1DBFB
:1047C0002346A34248D01A1B39F92500A1EB040C5B
:1047D000059B92EA0C0F09D4354A184404EB0B01EF
:1047E0001268126E13680246984735E00DF07AFAA7
:1047F00032E0A14230D001DBA04203DDA0422BDB3E
:10480000A14229DCE04688420ADC0346A04223DCC0
:104810000846A14220DBB8F900C0B2F9001008E058
:104820000B46A14218DCA04216DBB2F900C0B8F971
:104830000010E21AA1EB0C0151430029A0EB030286
:1048400002DD01EB620102E0A1EB6201491CC01A2A
:1048500091FBF0F06044C9E76D1CBD42FFF674AFF8
:104860000598009004EB0B0001900020804605465F
:1048700013E01149B8F1000F31F915A009D00099E2
:1048800001EB0A0208440A490968096E0B6801999C
:10489000984788F0010850466D1C064909688D420A
:1048A000E7DB641CB4427FF748AF07B0BDE8F08F88
:1048B0000C03002064030020D09301202DE9F04F69
:1048C000DFF828B191B04FF0FF35DBF80030B3F9D5
:1048D00022100691DE69B3F92490F469A18981421E
:1048E00006D8E289824203D3471AD4F8008012E046
:1048F000D4E9018100296FD00A8882426CD84D88A2
:10490000854269D3801A82B2486800EB8200B0F910
:104910000070B0F90250781C5ED0307EA17C10FB94
:1049200001FA217CCDE90701B3F92A60304606F08F
:10493000AFFCC0B20E90DBF8000007FB0A81A37C3D
:10494000826B0127CDE90412CDE90273C069089A90
:10495000C17E807ECDE90001DDE90603494606F00F
:1049600021F9681C18D046F0020006F091FCDBF833
:104970000000A37C05FB0A81826BCDE90273CDE9BF
:104980000412C069089AC17E807ECDE90001DDE98C
:104990000603494606F006F9DBF800005D46C069EB
:1049A000417E007E814214D9022E12D086F004008E
:1049B00006F06EFC2868C069027EC37E12FB03917C
:1049C000437E857E089A06984B4412FB050206F04A
:1049D00075FA0E9806F05CFCDBF80000627C418CF6
:1049E0001144418411B0BDE8F08F00000C03002099
:1049F00004480068C069C06909B1027C0A60407C53
:104A0000704700000C030020022008807047C06936
:104A100082898A4202D8C2898A4210D2806880B1D3
:104A200002888A420DD843888B420AD3406800EB43
:104A30008100A0EB8200B0F90000002801DB01201A
:104A400070470020704700002DE9F043334C0346C7
:104A500087B020681946B0F92A60C069C06900F0C3
:104A600090F8002853D041680088181A01EBC0055F
:104A70003046AF7806F00CFC814620686A68012356
:104A8000816BCDE90237CDE90421C169CB7E8A7EF5
:104A9000CDE900230B7EB0F924102A78B0F922006A
:104AA00006F080F82068C069417E027E91421FD9DD
:104AB000C07E11FB00F812FB00F7022E18D000F0A8
:104AC000D3FD064600F09EFD00F0B9FF21682A786C
:104AD000CB69B1F92200DB7E12FB0302B1F924108D
:104AE00001EB0803394406F0E9F9304600F0A7FF6E
:104AF000484606F0CDFB20686A78C369B0F92210F9
:104B00009B7E12FB0311418407B0BDE8F08307B020
:104B10003046BDE8F04301F0E5B900000C03002089
:104B200070B5114C05460B4620682946C069C0691E
:104B300000F027F898B14168008824682A1A0120FB
:104B4000E46900EBC200085CA47E10FB04F0002BBB
:104B500004D011F8321011FB04F1196070BDBDE8EA
:104B6000704001F00FBA00000C0300200120088003
:104B7000704700B5C06900F004F8002800D001209B
:104B800000BD06E002888A4202D842888A4202D2E8
:104B900080680028F6D170472DE9F0410025144EB9
:104BA000144C17E02069C5EB051700EBC700702215
:104BB000001D3168FBF7F9FF2069002140F837102C
:104BC00000EBC70000F10C018161011DC163091DEB
:104BD0006D1C0164A0688542E4DB0EF0B5FF21691D
:104BE000C0EB001001EBC000001D3060BDE8F0819B
:104BF0000C030020BC03002070B510490E4808606B
:104C0000084601F0A5FA0D4C143CA068C0EB00105A
:104C1000C500284600F06EF8094B20612A461B6843
:104C2000002198474FF0FF30206001F011F8BDE8F7
:104C300070400EF089BF0000413E0108D003002003
:104C40009003002010B5040009D000F0C7FD2046F5
:104C50000DF0AEF8044600F0B5FF204610BD002070
:104C600010BD000038B5054600F0B8FD2846FFF736
:104C7000E9FF04000AD000F095F8064B00902A46A0
:104C80001B6800219847684600F09AF800F09AFFE8
:104C9000204638BD90030020024A106021F0030036
:104CA000506070475493012010B5040011D000F0FB
:104CB00095FD0848042101EBC401406B4158486848
:104CC0000DF02EF820460FF035F9BDE8104000F049
:104CD00079BF10BD94920120002808D00449CA6B06
:104CE000026000224260026802B15060C8637047EF
:104CF000949201202DE9F04104460EF0E7FF284888
:104D0000E41C24F00305016C2D1DA94200D90D46B9
:104D1000C46B13E054F8042CAA420ED184B121686C
:104D200009B162684A60616809B122680A60C26BB1
:104D3000A24231D12168C1632EE02468002CE9D160
:104D40008046816BC0680F1857F8040C3E1A306813
:104D500038B100200FF01CF957F8040C3E1A3068E7
:104D6000D0B97068A84217DB3044441B3046241D7C
:104D70000FF0F4F8D8F80C10491BC8F80C10D8F84C
:104D800014102944C8F814107068401B02D0314632
:104D90000CF0C6FF44F8045C2046BDE8F08100003A
:104DA000949201200549CA69521CCA61496B01EB02
:104DB000C0010A78521C0A7000F01AB894920120BF
:104DC0000A4902684B6B52F8082C03EBC2021378B5
:104DD000022B03D3CB690BB15B1ECB611178491E4B
:104DE0001170002101600846704700009492012074
:104DF0000349042202EBC000496B08580830704791
:104E000094920120524201F096B910B5C2B2CBB2D1
:104E1000D21A00D5524293B25B43C0F30722C1F3CA
:104E20000724121B00D55242000C92B2A0EB114095
:104E300002FB023200B2002801DA404200B280B226
:104E400000FB002010BD10B50021084600F078FCE2
:104E500043F6FF725042BDE810401346014600F091
:104E600001B800002DE9FC411C4615460E460746D8
:104E700000F0B4FC042006F00BFA804612484069AA
:104E8000816CC06C0F4406440D440444ADF80070BE
:104E9000ADF80450ADF80260ADF8064068460CF07D
:104EA0005FFD07E023462A463146384606F006F8FD
:104EB0000CF018FD0028F5D1404606F0E9F900F0A5
:104EC00081FEBDE8FC810000F80200202DE9F041E0
:104ED0001C4616460D460746022B02DB0020BDE8A5
:104EE000F0811C20FFF706FF0028F8D00DB1056106
:104EF0000AE0094A52F8241009B905E011460A6887
:104F0000002AFBD109690161846186820021016068
:104F10004160C0E90217E2E74403002070B51D4676
:104F2000FFF7D4FF040009D000F00EF8E068006835
:104F300020B90348006800EB85004465204670BD39
:104F40000C030020FFF7C8BE70B5C0B38269022A07
:104F500036DA2149531C0C789C4200DA0B701F4C46
:104F600054F8221019B944F8220032E019464B686F
:104F7000002BFBD106E0CB68C5681B682D68AB42EF
:104F800003DD09680029F6D11AE0C1B1CB68C66813
:104F90001B683668B3420CD1838A012B05D008E028
:104FA0001946DB681B68AB4203DB0B68002BF7D1AB
:104FB00029B14B6833B118604A68426004E0FFE7EA
:104FC000012070BD44F822004860884200D10021D1
:104FD0000160002070BD0000580300204403002041
:104FE00010B503E00468FFF7AFFF20460028F9D1B1
:104FF00010BD000010B50C4B8269002153F822400F
:10500000844205D1046843F82240026802B151602D
:1050100042680AB10368136002680AB143685360CA
:105020000160416010BD0000440300200020704773
:10503000022801DB00207047054951F8200004E0F8
:10504000C16809680029F6D000680028F8D17047C7
:105050004403002010B500F0C1FB00F011FB05492E
:1050600009688A8C10448884088C4884BDE8104004
:1050700000F0A8BD0C0300202DE9FC4706005FD01E
:1050800000F0ACFB00F0FCFA3C4C81462068B0F923
:10509000228000F027FB216807468A8CD01B888479
:1050A00041E000BF47F6FF71304600F04FFF8246F7
:1050B0000146304600F01CFF2168054691F82C009F
:1050C00000F00300012841D002283BD000204A8C88
:1050D000101A4884ADF800006A1E1044ADF80400B0
:1050E000888CADF80200A9F101010844ADF8060072
:1050F0006A465146304600F08DFE2168BDF8020038
:1051000088845146304600F01FFD064430780A2856
:105110001ED00D281CD0BDF800002168284448840A
:10512000307818B1761C30780028BBD12068818C8B
:1051300039448184818D21F00301818500F042FD95
:10514000BDE8FC8705EBD5704010C0E72846BEE7F8
:10515000206890F82C1001F0030101290BD00229DE
:1051600009D0018C418431780A29D9D1828C02EB93
:1051700009018184D4E7A0F82280F4E70C03002021
:1051800070B514460D46064600F028FB0548006839
:10519000458484843046FFF76FFFBDE8704000F01F
:1051A00011BD00000C0300202DE9FC4115460E4600
:1051B000074600F013FB00F071FA04461748006838
:1051C000816CC06C0F440644781B001BADF80000D6
:1051D00078192044ADF80400701B001BADF80200E4
:1051E00070192044ADF8060068460CF0B9FB09E0E0
:1051F000012C0DD023462A46314638460DF0A8FD35
:105200000CF070FB0028F3D100F0DCFCBDE8FC8161
:105210002A4631463846FFF72DF9F1E70C03002006
:105220002DE9F04F87B09B46DDE9109892460C4679
:10523000054600F0D3FA16480168886CC96C471916
:105240000E1900EB0A0501EB0B04ADF81070ADF878
:105250001450ADF81260ADF8164004A80CF080FBB5
:1052600088B1DFF830B04FF0010ACDE90098CDE900
:1052700002BA23462A46314638460DF0C7FD0CF0E7
:1052800031FB0028F1D100F09DFC07B0BDE8F08FA4
:105290000C030020A9AD00082DE9F0411C4615467D
:1052A0000E46074600F09AFA0C480168886CC96CF3
:1052B000074405440E440C4400200CF051FB07E069
:1052C00023462A4631463846FFF706F90CF00AFB1A
:1052D0000028F5D1BDE8F04100F074BC0C030020BB
:1052E0002DE9FF4F83B0984615460E46074600F05D
:1052F00075FA284C2268916C107ECB190393D26CFE
:1053000001EB050A401E191AADF800100AEB000166
:1053100002EB060BADF80410ABEB000102EB080941
:105320004844ADF80600ADF8021068460CF018FBD2
:1053300029E018480068047E012C1CD9601E00EB8F
:10534000D0700399ABEB6007A1EB60080AEB600635
:1053500009EB60052B463246394640460DF05BFFAF
:1053600008F10108641EA5F10105A6F1010607F187
:105370000107EFD105E04B465246594603980DF020
:105380004AFF0CF0AFFA0028D3D100F01BFC07B0A5
:10539000BDE8F08F0C0300202DE9FE43994614462A
:1053A0000D460646DDF8288000F018FA124801681C
:1053B000886CC96C87194E19051901EB0904ADF801
:1053C0000470ADF80850ADF80660ADF80A4001A8C9
:1053D0000CF0C6FA09E023462A4631463846CDF895
:1053E00000800DF031FF0CF07DFA0028F3D100F0C1
:1053F000E9FBBDE8FE8300000C03002070B51646F3
:105400000C46054600F0EAF90B480068816CC06C58
:105410000D44044400200CF0A3FA06E03246214675
:105420002846FFF7FFF80CF05DFA0028F6D1BDE83A
:10543000704000F0C7BB00000C0300202DE9FC47C2
:105440001D4616468846814600F0C8F9164C20686D
:10545000816CC06C0E44054400200CF081FAF0B160
:10546000124F20681121407C57F820000190C0683D
:10547000426A01A890475FEA000C06D033464246D4
:10548000494600950198E04705E02B4632464146E3
:105490004846FFF725F90CF025FA0028E1D100F085
:1054A00091FBBDE8FC8700000C03002044030020B2
:1054B0002DE9FC411C4615460E46074600F08EF9C4
:1054C00010480068816CC06C0F4406440D440444CD
:1054D000ADF80070ADF80450ADF80260ADF80640CC
:1054E00068460CF03DFA07E023462A463146384626
:1054F00005F0E4FC0CF0F6F90028F5D100F062FBB1
:10550000BDE8FC810C030020B0F90630B0F904209E
:10551000B0F90210B0F90000FFF7CABF2DE9F04F53
:1055200087B01C4615460E46074600F057F92F482F
:10553000016802A88A6CC96C02EB070A02EB050934
:105540000E4401EB0408ADF808A0ADF80C90ADF8DE
:105550000A60ADF80E800CF003FAE0B3A8EB060089
:10556000401C0590109C0598B0EB440F32DBA9EB72
:105570000A00401CB0EB440F2CDB04FB04F0274670
:10558000354606EB040B04901AE0049807FB17005D
:1055900000F004FE0AEB0401091A0191A9EB0401D1
:1055A0000844024600902946019805F0FDFBDDE91C
:1055B0000020A91BA8EB010105F0F6FB6D1C7F1E66
:1055C000AB45E2DAA8EB04034A46294650465B1E87
:1055D00005F074FC00E003E00CF084F90028C1D170
:1055E00000F0F0FA07B0BDE8F08F00000C030020D7
:1055F000034951F82000C1688A6A08211047000059
:105600004403002010B500F0E9F805F087FC05F030
:1056100005FD044600F0D6FA204610BD10B504463C
:1056200000F0DCF8054800210068C06942682046A7
:105630009047044600F0C6FA204610BD0C03002037
:1056400070B50C46054600F0C9F8064821460068CA
:10565000C069426828469047044600F0B3FA2046E5
:1056600070BD00000C03002010B500F0B7F805F085
:105670005DFC05F0D3FC044600F0A4FA204610BD02
:1056800010B500F0ABF804480068C069447E00F033
:1056900099FA204610BD00000C03002010B500F060
:1056A0009DF803480068047E00F08CFA204610BD87
:1056B0000C03002010B5044600F06AFC01462046A9
:1056C000BDE81040AFF3008070B50C46054600F011
:1056D00085F82146284600F00BFC044600F072FADB
:1056E000204670BD10B5002400F078F80B48006823
:1056F00090F82C1001F00C01042904D0082906D0E0
:105700000C2907D103E0C069047E641E02E0C06971
:10571000007E440800F056FA204610BD0C0300201D
:10572000024951F8200000690068704744030020D6
:10573000024951F820000069406870474403002086
:1057400070B50C46054600F049F8044800684584E9
:10575000848400F037FA002070BD00000C030020A4
:1057600070B500F03BFB1B4C2E20207000F062FA5D
:1057700019480EF051FA05F075FC054605F00AFCD3
:10578000C0B1002605F010FCB0B10020064307D0E0
:1057900005F010FC064605F003FC314605F072FDED
:1057A0000021084600F06CF90BF006FFFFF7F4F952
:1057B000606B09E00126E5E70120E7E7006800B13A
:1057C0008047606B406860630028F7D10120A070BB
:1057D000284670BDF80200206093012070B5184C77
:1057E000E06820B100F01EFA6168884204D000F041
:1057F0004DFA00F017FA6060E068401CE060012894
:105800001CD10EF0A1F905462068854216D000286B
:1058100013DBFFF70BFC01462068C0EB0012206988
:1058200000EBC2025167C5EB0511064A00EBC1004F
:10583000011D1160406FFFF7D3FB256070BD0000B4
:10584000BC0300200C03002038B504001CD0FFF777
:10585000C5FF0E480068C06DA04201D100F0BBF842
:105860002046FFF79FFA0090406908B100F094F9D4
:1058700000980068FFF766FB6846FFF7A1FA20462C
:10588000FFF712FA00F09EF938BD00000C0300206B
:1058900038B505004FF0000411D0FFF79FFF2846F0
:1058A000FFF780FA0090006800698068804705F083
:1058B0006FFE04466846FFF783FA00F083F920463E
:1058C00038BD38B504000ED0FFF788FF2046FFF73B
:1058D00069FA00F1180400906846FFF771FA00F0C9
:1058E00071F9204638BD002038BDF8B516460F4680
:1058F000050012D0FFF756FA009044696846FFF79A
:105900005FFA2846FFF7C4FF0346082800DD2CB1E4
:105910003246394628460EF0C5FCF8BD32463946B7
:1059200028460EF05FFEF8BD10B5002821D009B35F
:105930000AB3B1F90040B2F900309C4200DA2346C4
:105940000380B1F90240B2F902309C4200DA2346EA
:105950004380B1F90440B2F904309C4200DD234693
:105960008380B1F90610B2F90620914200DC11469D
:10597000C18010BD11460A6802604968416010BDCF
:1059800000280BD003880B4403808388194481804E
:10599000418811444180C1881144C1807047B0F9E9
:1059A0000220B1F906309A4213DCB1F90220B0F9B5
:1059B00006309A420DDCB0F90020B1F904309A4269
:1059C00007DCB1F90010B0F90400814201DC0120CC
:1059D00070470020704710B5FFF700FF05F0E8FBA7
:1059E00005F09EFC0BF0A8FCBDE8104000F0EAB802
:1059F00070B50B4D04462868467CFFF7EFFE022C7D
:105A000009D22046FFF714FB28B128684474FFF739
:105A1000E2FF0448046000F0D5F8304670BD000095
:105A20000C0300200C04002010B50446FFF7D6FE3E
:105A3000204605F0DDFBBDE8104000F0C3B810B50E
:105A40000446FFF7CBFE204605F00AFCBDE81040F7
:105A500000F0B8B80149886070470000F8020020E3
:105A600070B50446FFF7BAFE04480068C56904B182
:105A7000C46100F0A7F8284670BD00000C030020A8
:105A800070B50C460546FFF7A9FE09482246058079
:105A90000848048008480068417C084850F8210004
:105AA000C1680B6A29469847BDE8704000F08AB883
:105AB00060030020620300200C0300204403002048
:105AC00070B50546FFF78AFE03480068047E057638
:105AD00000F078F8204670BD0C03002070B5044635
